:020000040800F2
:10000000F005002035010008F71E0008591C000803
:10001000F51E0008AD020008AB2600080000000035
:100020000000000000000000000000001B1F00088E
:10003000DB02000800000000191F00081D1F000857
:100040004F0100084F0100084F0100084F01000850
:100050004F0100084F0100084F0100084F01000840
:100060004F0100084F0100084F010008B1020008CD
:100070004F0100084F0100084F0100084F01000820
:100080004F0100084F0100084F0100080000000068
:100090000000000000000000000000004F01000808
:1000A000E51F0008F52000082D2000084F0100087A
:1000B0004F0100084F0100084F0100084F010008E0
:1000C0004F0100084F0100084F0100084F010008D0
:1000D0004F0100084F0100084F0100084F010008C0
:1000E0004F0100084F0100084F0100080000000008
:1000F0000000000000000000000000000000000000
:1001000000000000000000000000000000000000EF
:1001100000000000000000002921000891230008D1
:10012000DFF80CD000F018F8004800479D2B0008BD
:10013000F00500200648804706480047FEE7FEE736
:10014000FEE7FEE7FEE7FEE7FEE7FEE7FEE7FEE787
:10015000991F000821010008064C074D06E0E068E1
:1001600040F0010394E8070098471034AC42F6D3FE
:10017000FFF7DAFF88370008A837000870B5044693
:1001800000688168C943C9071CD1816821F0010159
:10019000816000F02BFD05460FE000BF00F026FD5A
:1001A000401B022809D9A06A40F01000A062E06A52
:1001B00040F00100E062012070BD20688068C0430B
:1001C000C007EBD0002070BD10B50146406A826ABE
:1001D00012F0500F05D0006A026BBDE810400846CF
:1001E0001047816A41F40071816201688968C1F336
:1001F000424107290CD1C16851B9816A21F480714B
:100200008162816AC90403D4816A41F0010181627B
:1002100000F018F910BD10B5406A816A41F0400144
:100220008162C16A41F00401C16200F00DF910BDA4
:1002300010B5406A00F007F910BD0000F8B50026BF
:100240000446009600688168C943C90728D08168C0
:1002500041F001018160134813490068B0FBF1F0DF
:1002600000E0401E00900028FBD100F0BFFC0546D6
:1002700011E000BF00F0BAFC401B02280BD9A06AB5
:1002800040F01000A062E06A40F00100E06284F8F3
:1002900024600120F8BD20688068C043C007E9D110
:1002A0000020F8BD0400002040420F00FEE70000DF
:1002B000014800F019BA0000B801002010B5046828
:1002C00063604368102B036803D099600068C260C4
:1002D00010BD9A600068C16010BD7047F8B5002578
:1002E000009590F82420AE46012A1ED0012280F805
:1002F00024204A681F244FF47873072A17D206680F
:10030000776B93FAA3FCBCFA8CFC521E02FB0CFC2C
:1003100004FA0CF4A74393FAA3F3B3FA83F30C683B
:100320005A439440274377632DE00220F8BD0668C6
:100330000D2A14D2376B93FAA3FCBCFA8CFCD21FA3
:1003400002FB0CFC04FA0CF4A74393FAA3F3B3FAF0
:1003500083F30C685A4394402743376313E0F76AEA
:1003600093FAA3FCBCFA8CFC0D3A02FB0CFC04FAD9
:100370000CF4A74393FAA3F3B3FA83F30C685A433C
:1003800094402743F7620A683823072406680A2A3C
:1003900014D3F76893FAA3FCBCFA8CFC0A3A02FB6C
:1003A0000CFC04FA0CF4A74393FAA3F3B3FA83F317
:1003B0008C685A4394402743F76012E0376993FAF8
:1003C000A3FCBCFA8CFC02FB0CFC04FA0CF4A74363
:1003D00093FAA3F3B3FA83F38C685A439440274308
:1003E00037610A68102A01D0112A20D1124B026805
:1003F0009A4217D193681B0219D4936843F40003FF
:1004000093600968102912D10C490D4A0968B1FBA3
:10041000F2F101EB8101490000E0491E0091002941
:10042000FBD104E0816A41F020018162012580F85E
:1004300024E02846F8BD000000240140040000200C
:1004400040420F0070477047704700002DE9F041AF
:1004500004004FF0000513D0A06A002628B9E66218
:1004600084F82460204600F08BF82046FFF786FED3
:10047000A16AC90600D420B1A06A40F01000A062B1
:1004800078E0A16A21F4885141F00201A16262681A
:10049000E16902270A43E16897FAA7F70B46B7FA22
:1004A00087F7B9400A43A1684FF48077B94209D071
:1004B000012907D05FF00001D4F814C0BCF1010F8E
:1004C00002D00AE03946F7E7F3B1A36A43F020030C
:1004D000A362E36A43F00103E3622368D3F804C034
:1004E0002CF4694C4CEA010CC3F804C021688B68F9
:1004F000DFF884C003EA0C0313438B60A168B942A0
:1005000010D001290ED016E04FF4604CA3699CFA7C
:10051000ACFCBCFA8CFC5B1E03FA0CF30B4343F4FB
:100520000061DAE74FF47001256991FAA1F1B1FA9F
:1005300081F16D1E8D402168CB6A23F470032B433B
:10054000CB62216889680D4B1940914208D1E6625F
:10055000A16A21F0020141F00101A162BDE8F08130
:10056000A06A20F0020040F01000A062E06A40F0B3
:100570000100E0620120F1E7FDF7E1FFFE0E1FFF41
:1005800030B505460068184985B088422AD1174819
:10059000816941F4007181618069694600F40070ED
:1005A00004903F20009003200190114800F032FA9F
:1005B000114C1048206000206060A0608020E06046
:1005C00040002061800060612020A061C001E061E6
:1005D000204600F0BFF918B17B2108A002F066F8B0
:1005E0002C62656205B030BD00240140001002405D
:1005F0000008014008000240B80100202E2E2F53B1
:1006000072632F73746D3332663178785F68616C12
:100610005F6D73702E6300002DE9F041044690F881
:10062000240016460F4601280ED0012084F824002D
:100630002046FFF703FE05004FF0000006D084F8C7
:1006400024002846BDE8F0810220FBE7A16A40F6BD
:100650000162914341F48071A162A16A21F4801189
:10066000A16221684968490505D5A16A21F40051B4
:1006700041F48051A162A16AC90404D5E16A21F064
:100680000601E16200E0E06284F82400216A134878
:100690008862216A1248C862216A12480863216888
:1006A0006FF0020008602068816841F48071816009
:1006B000216833463A464C31206A00F073F92068CD
:1006C0008168C1F342410729816803D041F4801158
:1006D0008160B6E741F4A001FAE70000C901000813
:1006E00031020008170200082DE9F05FDFF8608290
:1006F0000446D8F80020DFF858B2954D944E944F38
:100700000068DFF84C92DFF848A20BF1080B1C35AB
:10071000303644374FF400614FF4004C4FF4002E54
:1007200009F158090AF16C0A584501D1082316E06D
:10073000A84201D1802312E0B04201D10B460EE065
:10074000B84201D163460AE0484501D1734606E04C
:10075000504502D14FF4000301E04FF000631A420C
:1007600031D00268D24312072DD4026822F0080269
:1007700002602068584501D1082114E0A84201D147
:10078000802110E0B0420ED0B84201D161460AE0AB
:10079000484501D1714606E0504502D14FF40001B1
:1007A00001E04FF00061C8F80410606B40F00100F8
:1007B0006063042084F82100002084F82000216B6D
:1007C00009B1204688476248D0F800C04FF48061E4
:1007D00020680A010B044FF4802E584502D14FF0D7
:1007E000040816E0A84202D14FF0400811E0B042E0
:1007F00001D188460DE0B84201D1904609E0484554
:1008000001D1F04605E0504502D14FF4800800E0E8
:1008100098461CEA080F33D0D0F800C06FEA0C0CE1
:100820005FEA4C7C2CD4D0F800C05FEA8C6C05D415
:10083000D0F800C02CF0040CC0F800C02068584567
:1008400001D1042113E0A84201D140210FE0B042C0
:100850000DD0B84201D1114609E0484501D1714699
:1008600005E0504502D14FF4800100E019463848B8
:100870004160112084F82100E16A09B120468847CF
:10088000334AD2F800C05B46206851154FF4005B34
:100890004FF4003E984202D14FF0020817E0A84200
:1008A00002D14FF0200812E0B04201D188460EE09C
:1008B000B84201D1D8460AE0484501D1F04606E0E9
:1008C000504502D14FF4001801E04FF000781CEAC7
:1008D000080F3BD0D0F800C06FEA0C0C5FEA8C7CAC
:1008E00034D4D0F800C05FEA8C6C05D4D0F800C0D6
:1008F0002CF0020CC0F800C02068984201D10221FF
:1009000014E0A84201D1202110E0B0420ED0B8423C
:1009100001D159460AE0484501D1714606E05045EB
:1009200002D14FF4001101E04FF000715160606B93
:100930006063012084F82100002084F82000A16A6F
:10094000002903D02046BDE8F05F0847BDE8F09FCE
:100950000000024070B520B190F82110002411B1C0
:1009600003E0012070BD80F82040022180F82110B2
:1009700003681A6843F6F0718A43D0E901152943E8
:10098000D0E90356354329434569294385692943FD
:10099000C5692943114319604463012180F821107E
:1009A000002070BD70B5044690F82000012823D0C7
:1009B000012084F82000022084F8210020680568C6
:1009C00025F0010505602046FFF778FC20680168E6
:1009D00041F0020101602068016841F004010160FA
:1009E0002068016841F0080101602068016841F059
:1009F00001010160002070BD022070BD31B500F022
:100A0000F5F8044600F0F2F80099001B8842F9D38B
:100A100038BD00002DE9F84FDFF890A100220AF15F
:100A2000040B144601274FF00F090BF1040E00BF11
:100A30000B6807FA04F52B40AB4274D1DFF870C1A4
:100A40004E68A6EB0C0866452BD00DDC032E34D087
:100A500005DC36B3012E19D0022E2FD11BE0112E4A
:100A600016D0122E2AD119E0B8F5881F19D006DC4D
:100A7000B8F5803F15D0B8F5801F1FD111E0B8F54B
:100A8000001F0ED0B8F5041F18D10AE0CA6815E09F
:100A9000CA68121D12E0CA6808320FE0CA680C3238
:100AA0000CE08A682AB1012A4FF0080203D04561A0
:100AB00004E0042202E0056100E00022FF2B01D8DF
:100AC000064601E000F104064FEA840501D9A5F1CC
:100AD0002005D6F800C009FA05F82CEA080C02FA3D
:100AE00005F54CEA050CC6F800C04D68ED0057D579
:100AF000304DAE6946F00106AE61AD6924F00306E3
:100B000005F0010500952C4D06EB050CDCF80850AE
:100B1000A6074FEA167809FA08F6B543274EB04201
:100B200002D1002610E03BE0254EB04201D1012663
:100B30000AE0244EB04201D1022605E0224EB04226
:100B400001D1032600E0042606FA08F62E43CCF86D
:100B500008604D68DAF80060ED03554601D51E4384
:100B600000E09E432E604D68DBF80060AD035D46FB
:100B700001D51E4300E09E432E604D68DEF8006004
:100B8000ED02754601D51E4300E09E432E604D6880
:100B9000AD020E4D2E6801D51E4300E09E432E602F
:100BA000641C102CFFF444AFBDE8F88F0004014032
:100BB0000000111000100240000001400008014038
:100BC000000C014000100140001401400C040140E1
:100BD0008068084000D001207047C2684A40C26067
:100BE00070470AB1016170470904FBE701480068DA
:100BF000704700000000002002480168491C0160A5
:100C0000704700000000002010B5032000F084F8B9
:100C1000002000F004F800F013F8002010BD10B51B
:100C2000044600F0B1F94FF47A71B0FBF1F000F036
:100C3000C7FC00222146501E00F04EF8002010BDD7
:100C40001D4808B5816941F001018161806900F0AA
:100C500001000090032000F05FF8002211466FF0C1
:100C60000B0000F039F8002211466FF00A0000F086
:100C700033F8002211466FF0090000F02DF8002231
:100C80001146501F00F028F800221146101F00F0F6
:100C900023F800221146901E00F01EF80022114693
:100CA000501E00F019F80548416821F0E06141F05C
:100CB0008061416008BD000000100240000001405A
:100CC00000F01F02012191404009800000F1E02066
:100CD000C0F8001170470000F0B40E4B1B680C46C2
:100CE000C3F30223C3F10705042D00D90425191D00
:100CF000072901D2002300E0DB1E012606FA05F1D8
:100D0000491E214099409E40761E16403143F0BC5A
:100D100001F0F2B80CED00E0064900F007020868A7
:100D20004FF6FF03184040EA0220034A10430860D0
:100D3000704700000CED00E00000FA052DE9F843D3
:100D400005460078414CC00774D0E06940F08050FF
:100D5000E061E0693E4E00F080500090306840F461
:100D600080703060FFF742FF074604E0FFF73EFF68
:100D7000C01B642833D83068C005F7D5206A10F44A
:100D8000407051D0A98801F4407181424CD0206A52
:100D90000126310491FAA1F2B2FA82F293002D4AAF
:100DA00020F440701344C3F8006491FAA1F1B1FA41
:100DB00081F102EB81010023C1F800342062C007F9
:100DC00032D0FFF713FF074641F288394FF002088F
:100DD00008E000BFFFF70AFFC11B494502D9032005
:100DE000BDE8F88398FAA8F1B1FA81F141F0400129
:100DF0004046B6EB511F01D121680BE090FAA0F1FB
:100E0000B1FA81F141F04001B0EB511F01D1216AEB
:100E100000E0616A98FAA8F0B0FA80F000F01F02D2
:100E200006FA02F00142D5D0206A696820F44070C9
:100E3000084320622878800705D56068A96820F4F7
:100E40004040084360600020CAE7000000100240F4
:100E500000700040000042422DE9F0410546007854
:100E6000464C800705D56068A96820F0F00008436B
:100E700060602878C00758D069680120012903D034
:100E8000022921D0022321E04FF400331EE000BFED
:100E900093FAA3F3B3FA83F303F01F0398400242DB
:100EA00002D10120BDE8F081606820F00300084312
:100EB0006060FFF79BFE0746686841F288360128AC
:100EC00015D002281FD02CE04FF0007393FAA3F244
:100ED000B2FA82F242F02002520901D02268D7E72A
:100EE000626AD5E7FFF782FEC01BB04217D8606880
:100EF000C0F381000128F5D117E000BFFFF776FEAF
:100F0000C01BB0420BD86068C0F381000228F5D145
:100F10000BE000BFFFF76AFEC01BB04201D90320FF
:100F2000C0E7606810F00C0FF4D12878400705D5B1
:100F30006068E96820F4E060084360602878000792
:100F400006D56068296920F4605040EAC1006060FD
:100F500000F020F86168F02292FAA2F201F0F001AC
:100F6000B2FA82F2D140064A515CC8400549086095
:100F70000020FFF754FE002094E70000001002401C
:100F8000783700080400002001480068704700001E
:100F90000400002010B519A288B00FCA8DE80F0018
:100FA0001AA304AC0FCB84E80F001C4B5A681C48F2
:100FB00002F00C0104291CD008291AD14FF4701436
:100FC00094FAA4F402F47011B4FA84F4E140D20368
:100FD0001DF801100FD5DA6A0F2393FAA3F302F07C
:100FE0000F02B3FA83F3DA4004AB9A5CB0FBF2F081
:100FF000484308B010BD0B484843FAE70203040514
:10100000060708090A0B0C0D0E0F1010010203044D
:1010100005060708090A0B0C0D0E0F100010024000
:1010200000127A0000093D002DE9F84F04460078CF
:10103000F74DC0074FF0010625D068687704C0F36C
:101040008100012807D06868C0F3810002281BD105
:101050006868C00318D597FAA7F0B0FA80F040F09E
:101060002000400901D0286800E0686A97FAA7F1DB
:10107000B1FA81F101F01F0106FA01F108425ED0D8
:10108000606800287CD05AE06068B0F5803F0BD0E3
:1010900010B1B0F5A02F11D0286820F4803028605E
:1010A000286820F4802002E0286840F4803028601E
:1010B000606828B3FFF79AFD80460BE0286840F48B
:1010C00080202860F0E700BFFFF790FDA0EB08004C
:1010D000642871D897FAA7F0B0FA80F040F02000A9
:1010E000400901D0286800E0686A97FAA7F1B1FAD0
:1010F00081F101F01F0106FA01F10842E4D01EE07F
:10110000FFF774FD804605E0FFF770FDA0EB0800D7
:101110006428DED897FAA7F0B0FA80F040F02000FB
:10112000400901D0286800E0686A97FAA7F1B1FA8F
:1011300081F101F01F0106FA01F10842E4D12078A3
:10114000DFF8D08280074FF000094FF002075BD52F
:1011500068684FF0F80B10F00C0F07D06868C0F308
:10116000810002281CD16868C00319D497FAA7F03F
:10117000B0FA80F040F02000400902D0286801E079
:101180008BE0686A97FAA7F1B1FA81F101F01F01CB
:1011900006FA01F108422CD0206901287DD128E00F
:1011A000206990B396FAA6F0B0FA80F048F8206073
:1011B000FFF71CFD824607E011E100BFFFF716FDB7
:1011C000A0EB0A00022884D897FAA7F0B0FA80F0C2
:1011D00040F02000400901D0286800E0686A97FAD2
:1011E000A7F1B1FA81F101F01F0106FA01F10842FD
:1011F000E4D028689BFAABF26169B2FA82F220F07F
:10120000F80091400843286025E0FFE796FAA6F130
:10121000B1FA81F148F82190FFF7E8FC824605E039
:10122000FFF7E4FCA0EB0A000228CCD897FAA7F05D
:10123000B0FA80F040F02000400901D0286800E0BA
:10124000686A97FAA7F1B1FA81F101F01F0106FA75
:1012500001F10842E4D1207800076ED5A069B8B347
:1012600096FAA6F0B0FA80F008EB8000C0F880642F
:10127000FFF7BCFC824605E0FFF7B8FCA0EB0A00D4
:101280000228A0D897FAA7F0B0FA80F040F06000EA
:10129000B6EB501F02D128680CE062E197FAA7F084
:1012A000B0FA80F040F06000B7EB501F01D1286A1F
:1012B00000E0686A97FAA7F1B1FA81F101F01F0125
:1012C00006FA01F21042D7D00120FFF797FB34E075
:1012D000FFE796FAA6F1B1FA81F108EB8101C1F8B6
:1012E0008094FFF783FC824606E000BFFFF77EFC98
:1012F000A0EB0A00022872D897FAA7F0B0FA80F0A3
:1013000040F06000B6EB501F01D128680BE097FA5F
:10131000A7F0B0FA80F040F06000B7EB501F01D1A9
:10132000286A00E0686A97FAA7F1B1FA81F101F042
:101330001F0106FA01F21042D8D12078400765D586
:10134000E86940F08050E861E869DFF8CCB000F06F
:1013500080500090DBF8001041F48071CBF8001051
:10136000FFF744FC824605E0FFF740FCA0EB0A00D3
:10137000642834D8DBF80000C005F5D5E068012802
:101380000AD008B1052813D0286A20F0010028628D
:10139000286A20F0040002E0286A40F00100286278
:1013A000E06841F2883B90B3FFF720FC82460BE0F7
:1013B000286A40F004002862EEE700BFFFF716FC41
:1013C000A0EB0A0159450AD897FAA7F0B0FA80F0C5
:1013D00040F04000B6EB501F02D128680CE0A3E0BB
:1013E00097FAA7F0B0FA80F040F04000B7EB501F3A
:1013F00001D1286A00E0686A97FAA7F1B1FA81F191
:1014000001F01F0206FA02F10842D7D031E005E0F0
:10141000001002400000424200700040FFF7E6FB6F
:10142000824605E0FFF7E2FBA0EB0A0159457BD8B5
:1014300097FAA7F0B0FA80F040F04000B6EB501FEA
:1014400001D128680BE097FAA7F0B0FA80F040F0DD
:101450004000B7EB501F01D1286A00E0686A97FA94
:10146000A7F1B1FA81F101F01F0206FA02F1084278
:10147000D8D1E06980B36968C1F38101022970D0D5
:101480004FF080714F000228484609D091FAA1F12F
:10149000B1FA81F148F82100FFF7A8FB044669E0A2
:1014A0008A4691FAA1F1B1FA81F1C14648F82100CA
:1014B000FFF79CFB804605E0FFF798FBA0EB0800D8
:1014C000022854D897FAA7F0B0FA80F040F0200034
:1014D000400902D0286801E061E0686A97FAA7F144
:1014E000B1FA81F101F01F0106FA01F10842E3D1DE
:1014F000206AB0F5803F05D1E86AA16820F00F00AE
:101500000843E862D4E908010843696821F47411CA
:10151000084368609AFAAAF0B0FA80F049F82060AF
:10152000FFF764FB044606E021E000BFFFF75EFB27
:10153000001B02281BD897FAA7F0B0FA80F040F001
:101540002000400901D0286800E0686A97FAA7F1F6
:10155000B1FA81F101F01F0106FA01F10842E5D06C
:101560001DE01EE0FFF742FB001B022802D903200A
:10157000BDE8F88F97FAA7F0B0FA80F040F02000AD
:10158000400901D0286800E0686A97FAA7F1B1FA2B
:1015900081F101F01F0106FA01F10842E2D10020B9
:1015A000E6E70120E4E74FF0E0210428086903D0D2
:1015B00020F004000861704740F00400FAE770472B
:1015C00010B5401EB0F1807F01D3012010BD4FF057
:1015D000E02460610F21601700F08EFC0020A06104
:1015E00007202061002010BD10B5FFF7E8FF10BDF7
:1015F0007047704730B590F83820012A20D001227A
:1016000080F83820022380F8393003685C6824F0C1
:1016100070045C6003685C680D682C435C60036860
:101620009C6824F080049C6003689C6849680C43B3
:101630009C6080F83920002180F83810084630BDC1
:10164000022030BD10B5040003D094F8390010B169
:1016500007E0012010BD002084F83800204600F08B
:101660000DF8022084F83900211D206800F0AAFE40
:10167000012084F83900002010BD000008B5354A6B
:1016800001683548914208D1C16941F00201C16148
:10169000C06900F00200009008BD304A91420ED1AE
:1016A000C16941F01001C161C069002200F0100061
:1016B000009011463620FFF70FFB362046E0284AFF
:1016C00091420ED1C16941F02001C161C06900227F
:1016D00000F02000009011463720FFF7FDFA372078
:1016E00034E0204A91420ED1816941F48031816118
:1016F0008069002200F48030009011461820FFF726
:10170000EBFA182022E0184A91420ED1816941F487
:10171000003181618069002200F4003000901146A0
:101720001920FFF7D9FA192010E0104A9142B3D1DD
:10173000816941F4802181618069002200F4802068
:10174000009011461A20FFF7C7FA1A20BDE808409A
:10175000FFF7B6BA0004004000100240001000403D
:101760000014004000400140004401400048014096
:10177000022180F8391001680A6842F001020A600B
:10178000012180F83910002070470168CA6842F0D2
:101790000102CA600068016841F001010160002097
:1017A0007047022180F8391001680A6A41F211136A
:1017B0001A4207D10A6A9B101A4203D10A6822F022
:1017C00001020A60012180F8391000207047016889
:1017D000CA6822F00102CA600068016A41F211126F
:1017E000114207D1016A9210114203D1016821F020
:1017F000010101600020704770B5044690F8380080
:10180000012817D0012584F83850022084F83900C7
:101810002068826822F0770222F47F4282600868A2
:10182000502837D00DDC202859D005DC88B310288B
:1018300041D151E0022070BD302853D040283AD128
:101840003FE060282ED070280BD0B0F5805F03D029
:10185000B0F5005F2FD110E02068816821F007010A
:1018600015E0CB68D1E90121206800F0FEFD216878
:10187000886840F0770088601DE0CB68D1E90121DD
:10188000206800F0F2FD2068816841F480418160A9
:1018900011E01EE0CA684968206800F0E3FE5021AC
:1018A000206806E0CA684968206800F0ECFE602104
:1018B000206800F0E4FD84F83950002084F83800F6
:1018C00070BDCA684968206800F0CCFE40212068DD
:1018D000EFE700212068ECE710212068E9E72021EC
:1018E0002068E6E730212068E3E7704770B50446DA
:1018F000006801694FF00005C943890715D4C16824
:10190000C943890711D4E91E0161012020762068AE
:1019100080698007204602D0FFF7E7FF04E000F06F
:10192000B5F8204600F037F9257620680169C943EB
:10193000490717D4C168C943490713D46FF004019C
:101940000161022020762068806910F4407F2046E3
:1019500002D0FFF7CAFF04E000F098F8204600F03C
:101960001AF9257620680169C943090716D4C168A8
:10197000C943090712D46FF00801016104202076E1
:101980002068C0698007204602D0FFF7AEFF04E060
:1019900000F07CF8204600F0FEF82576206801690A
:1019A000C943C90617D4C168C943C90613D46FF027
:1019B00010010161082020762068C06910F4407F82
:1019C000204602D0FFF791FF04E000F05FF82046C8
:1019D00000F0E1F8257620680169C943C90708D1FC
:1019E000C168C943C90704D1891E0161204600F0BE
:1019F00031F920680169C943090609D4C168C9439E
:101A0000090605D46FF0800101612046FFF7F0FD63
:101A100020680169C943490609D4C168C943490618
:101A200005D46FF040010161204600F014F92068F0
:101A30000169C94389060BD4C168C943890607D423
:101A40006FF0200101612046BDE87040FFF7D1BD75
:101A500070BD00001FB50068094988420FD12020E1
:101A6000009002200190039069460648FEF7D2FFDD
:101A70000548416821F4406141F4006141601FBDA7
:101A800000040040000C014000000140704770B5A8
:101A9000044690F838000D4601280DD0012684F840
:101AA0003860022084F8390042B1042A18D0082A8C
:101AB0002AD00C2A4DD139E0022070BD206800F0F8
:101AC000E7FC2068816941F0080181612068816933
:101AD00021F004018161206881692A69114311E0C4
:101AE000206800F015FD2068816941F40061816182
:101AF0002068816921F480618161206881692A6997
:101B000041EA0221816124E0206800F03DFD206867
:101B1000C16941F00801C1612068C16921F0040177
:101B2000C1612068C1692A69114311E0206800F091
:101B300067FD2068C16941F40061C1612068C16925
:101B400021F48061C1612068C1692A6941EA0221EA
:101B5000C16184F83960002084F8380070BD10B588
:101B6000040003D094F8390010B107E0012010BD43
:101B7000002084F83800204600F00CF8022084F899
:101B80003900211D206800F01DFC012084F8390077
:101B9000002010BD7047704710B504460068012250
:101BA00000F058FC0B482168814208D00A48814265
:101BB00005D00A48814202D00948814203D1486CCD
:101BC00040F4004048642068016841F00101016070
:101BD000002010BD002C01400040014000440140A5
:101BE0000048014010B504460068002200F032FCB5
:101BF000144841F2111221689310814208D0124812
:101C0000814205D01148814202D01148814209D158
:101C1000086A104206D1086A184203D1486C20F4C1
:101C2000004048642068016A114206D1016A1942E5
:101C300003D1016821F001010160012084F839001D
:101C4000002010BD002C0140004001400044014034
:101C50000048014070477047FEE70000FEB5264887
:101C6000244900240160891501254461C0E9021559
:101C7000062606614FF460214460C161FEF7E6FB71
:101C800000B1FEE7CDE9004569461B480294FEF726
:101C900025FB00B1FEE70224CDE900546946164851
:101CA000FEF71CFB00B1FEE70094032469461248CE
:101CB0000194FEF713FB00B1FEE70094042469468B
:101CC0000D480194FEF70AFB00B1FEE700940524DD
:101CD000694609480194FEF701FB00B1FEE7CDE932
:101CE000004669460448FEF7F9FA002800D0FEE7EE
:101CF000FEBD000000240140140000202DE9F04F3B
:101D0000424885B0816941F020018161816901F01B
:101D100020010491816941F010018161816901F024
:101D200010010491816941F004018161816901F030
:101D300004010491816941F0080181618069DFF843
:101D4000D09000F0080041F6CF74049000222146A4
:101D50004846FEF746FF4FF60F47002239462D480A
:101D6000FEF73FFFDFF8B0A04FF47948002241466C
:101D70005046FEF736FFDFF8A4B000220421584693
:101D8000FEF72FFF0094012402256946484603957B
:101D90000194FEF73FFEC0200026CDE9000669460B
:101DA00002945046FEF736FE3020CDE90006694623
:101DB00002944846FEF72EFECDE9007469461548A8
:101DC0000395FEF727FECDE900846946504603954A
:101DD000FEF720FE0420CDE900046946039558462D
:101DE000FEF718FE5020CDE9000669460294094826
:101DF000FEF710FE2002CDE900066946029505486F
:101E0000FEF708FE05B0BDE8F08F000000100240AC
:101E100000100140000C0140000801400014014086
:101E200010B5144886B01249016045F6BF51002430
:101E3000C0E9011440F2CF71C0E903144461FFF717
:101E400001FC00B1FEE74FF480500090694609485C
:101E5000FFF7D2FC00B1FEE7049404A905480594FD
:101E6000FFF7C8FB002800D0FEE706B010BD000059
:101E700000400140F800002010B51D488EB01B49FD
:101E8000016006210024C0E9011440F2E731C0E9F5
:101E90000314FFF7D7FB00B1FEE74FF48050079023
:101EA00007A91348FFF7A8FC00B1FEE71048FFF7A9
:101EB00056FE00B1FEE70B940BA90D480C94FFF7FA
:101EC00099FB00B1FEE7602000904FF4FA70CDE975
:101ED00001040422694606480494FFF7D8FD00B1C6
:101EE000FEE70348FFF7B6FD0EB010BD000400404A
:101EF00044000020FEE770470907090E002806DAB3
:101F000000F00F0000F1E02080F8141D704700F190
:101F1000E02080F8001470477047704710B5FEF756
:101F20006BFEBDE81040FFF75FBB30B593B00120FA
:101F3000009000040025CDE901050224CDE9074009
:101F4000800009906846FFF76FF800B1FEE70AA924
:101F50000F2081E831000D9500210AA80E95FEF7AB
:101F60007BFF00B1FEE70FA811950F94FEF7E6FE88
:101F700000B1FEE7FFF708F84FF47A71B0FBF1F01B
:101F8000FFF71EFB0420FFF70EFB00221146501E38
:101F9000FEF7A2FE13B030BD0E48016841F001010A
:101FA000016041680C4A1140416001680B4A1140D0
:101FB0000160016821F480210160416821F4FE0183
:101FC00041604FF41F0181600021C1620449C003D8
:101FD00008607047001002400000FFF8FFFFF6FEA7
:101FE00008ED00E010B50D48FFF780FC10210C480B
:101FF000FEF7EEFD0B4A03000B4812784FF48051B8
:1020000002D0012A02D003E0012A01D0002200E020
:102010000122BDE81040FEF7E4BD0000F8000020FA
:10202000000C01400F0000200008014070B52E4850
:10203000FFF75CFC2D4840F6282104888C4201D231
:10204000012200E000224FF4FA739C4201D90124DE
:1020500000E00024224044888C4201D2012500E0A7
:1020600000259C4201D9012400E0002425408488F9
:102070002A438C4201D2012500E000259C4201D96F
:10208000012400E000242540C4882A438C4201D268
:10209000012500E000259C4201D9012300E0002336
:1020A0001D4044892A4340F622339C4201D28C428F
:1020B00001D8012400E0002400892240984201D286
:1020C000884201D8012000E00020024203D00849E4
:1020D0000120087070BD0448FFF763FBBDE8704045
:1020E0000148FFF774BB000070010020AC01002024
:1020F0000F00002010B50948FFF7F8FB0849002041
:10210000087004210748FFF76DFD0448FFF749FBFD
:10211000BDE810400148FFF75ABB00003401002021
:102120000B000020440000202DE9F05F8D48FFF7F0
:10213000DDFB8D480078002871D08C4C00254FF0D5
:10214000010920784FF004010028894803D0FFF7E7
:1021500023FD257003E0FFF745FD84F80090854ED0
:10216000A84628463570DFF810A2DFF810B2844C7C
:1021700040F622354FF4FA77C0B234F81010A94275
:1021800001D9012200E00022B94201D2012100E080
:1021900000210A4330D006282ED2DFE800F0031CCD
:1021A000415C79A820217748FEF712FD38B1002262
:1021B00001215046FEF715FD0022042119E0208878
:1021C000A84203D901215046FEF707FD2088B842F6
:1021D000E2D204211EE010216A48FEF7F9FC60B14A
:1021E00000224FF480615046FEF7FBFC00224FF4C2
:1021F00080515046FEF7F5FCAAE06088A84204D959
:102200004FF480615046FEF7E8FC6088B84205D282
:102210004FF480514FEA0A00FEF7DFFC98E09EE0A1
:1022200080215948FEF7D4FC40B100224FF4804190
:102230005046FEF7D6FC0022402119E0A088A842B3
:1022400004D94FF480415046FEF7C7FCA088B8423D
:102250007ED240211AE040214B48FEF7B9FC48B13C
:1022600000224FF400415046FEF7BBFC00228021C3
:102270004448BFE7E088A84204D94FF400415046E3
:10228000FEF7ABFCE088B84262D280213D48C3E74C
:102290002089A84209D90122D1033B48FEF7A1FCBD
:1022A000012208215046FEF79CFC2089B8424FD2FB
:1022B0009BF8000001280CD00122D1033248FEF720
:1022C00090FC012208215046FEF78BFC8BF8009011
:1022D0003EE000224FF400412B48FEF782FC002232
:1022E00008215046FEF77DFC8BF8008030E06089C5
:1022F000A84209D9012211022348FEF772FC0122EB
:10230000D1022148FEF76DFC6089B84220D21F48F7
:10231000007801280DD0012211021B48FEF761FC54
:102320000122D1021848FEF75CFC184981F80090A0
:102330000EE000224FF480711348FEF752FC002299
:102340004FF400611048FEF74CFC104981F8008002
:102350003078401CC0B230700628FFF40DAFBDE8E5
:10236000F09F0000800000200F00002009000020E6
:102370004400002010000020000C0140110000204B
:10238000AC010020001001400008014012000020B4
:1023900010B50948FFF7AAFA084C4FF0040120785D
:1023A0000028074803D0FFF7F7FB002002E0FFF703
:1023B00019FC0120207010BDBC0000200900002085
:1023C00044000020F0B502681C4B1D4C1D4D4FF021
:1023D000804E984205D0704503D0A04201D0A8425B
:1023E00003D122F070064A683243174E174FDFF8C8
:1023F00060C098420BD0704509D0A04207D0A842D7
:1024000005D0B04203D0B84201D0604503D122F4D8
:102410004074CA68224302608A68C2620A688262A3
:10242000984205D0B04203D0B84201D0604501D1F6
:102430000969016301214161F0BD0000002C0140E8
:1024400000040040000800400040014000440140FA
:102450000048014010B50123046A8B409C4304628C
:10246000036A8A401343036210BD10B5846842EAD0
:10247000032224F47F440A432243826010BD826811
:1024800022F070020A4342F00701816070470000A9
:10249000F0B5026A22F001020262036A42688469AE
:1024A000184E24F073050C68174F2C4323F00205D7
:1024B0008B68DFF858C02B43114DA84205D0B042BD
:1024C00003D0B84201D0604506D123F0080ECB6896
:1024D00043EA0E0323F00403A84205D0B04203D020
:1024E000B84201D0604505D14D6922F440721543D0
:1024F0008A692A4342608461496841630362F0BD8E
:10250000002C0140004001400044014000480140CF
:1025100030B5026A22F010020262026A43688469DE
:102520000D6824F4E64444EA05248D6822F0200274
:1025300042EA0512104DA84207D1CD6822F0800270
:1025400042EA051222F0400208E00C4DA84205D0F4
:102550000B4DA84202D00B4DA84207D14D6923F480
:10256000406343EA85038D6943EA850343608461E0
:1025700049688163026230BD002C01400040014087
:10258000004401400048014030B5026A22F48072E4
:102590000262036A4268C46923F4007324F073057D
:1025A0000C682C438D6843EA0523114DA84207D1DE
:1025B000CD6823F4006343EA052323F4806308E035
:1025C0000C4DA84205D00C4DA84202D00B4DA8429C
:1025D00007D14D6922F4405242EA05128D6942EA60
:1025E00005124260C4614968C163036230BD0000E6
:1025F000002C0140004001400044014000480140DF
:1026000030B5026A22F480520262046A4268C369E9
:102610000D6823F4E64343EA05238D6824F400544F
:1026200044EA05340B4DA84208D00B4DA84205D012
:102630000A4DA84202D00A4DA84204D14D6922F4A5
:10264000804242EA85124260C361496801640462C3
:1026500030BD0000002C014000400140004401401A
:102660000048014010B5036A046A24F001040462C2
:10267000846924F0F00444EA021423F00A020A43B5
:102680008461026210BD10B5036A23F01003036277
:102690008369046A23F4704343EA023224F0A003FE
:1026A00043EA01118261016210BDFEE7FEE702E02C
:1026B00008C8121F08C1002AFAD1704770470020CD
:1026C00001E001C1121F002AFBD170472DE9F05F24
:1026D0008E4C00208E4D20724FF4806A4FF4804B58
:1026E00040F6223840F68C2740F628264FF4FA7937
:1026F000C1B235F81120424501D2012200E000228A
:1027000035F81130BB4201D9012300E000231A4201
:102710002CD031B101290CD0022912D0032941D18A
:1027200017E020217B48FEF753FA50BB012201211C
:1027300018E010217748FEF74BFA38BB01225146CA
:1027400010E080217448FEF743FA20BB012259466D
:1027500008E040217048FEF73BFA08BB5FF0010239
:102760004FF400416D48FEF73CFA1BE031B10129FE
:1027700009D002290CD0032914D10EE02988414543
:1027800010D20022D3E7698841450BD20022D6E758
:10279000A988414506D20022D9E7E988414501D2FE
:1027A0000022DDE7207A35F81010B94201D201216C
:1027B00000E0002135F81020B24201D9012200E0EA
:1027C0000022114232D030B101280BD0022810D0A3
:1027D000032824D118E020214E48FEF7F9F960BB08
:1027E00001222BE010214B48FEF7F2F940BB0122F9
:1027F00027E080214848FEF7EBF928BB5FF0010293
:102800004FF40051454808E040214348FEF7E0F905
:10281000E0B901224FF480713E48FEF7E2F9207AD8
:1028200035F81010B14213D2012112E070B1012825
:102830000AD0022804D00328F1D100220221E1E7C6
:1028400000224FF40061DDE70022D9E70022E1E732
:10285000002135F810304B4501D9012300E0002359
:1028600019422BD030B101280BD0022814D00328F4
:1028700042D118E020212748FEF7AAF948BB0122DF
:1028800028E010212348FEF7A3F940BB5FF00102C6
:102890004FF4805121480EE080211F48FEF798F93F
:1028A00010BB012221E040211B48FEF791F908BB33
:1028B000012280211748FEF794F91DE030B101286C
:1028C0000AD002280DD0032816D110E028884845E8
:1028D00012D900220421DDE7688848450CD900227E
:1028E000D6E7A888484507D900224021E2E7E888D2
:1028F000484501D90022DCE7207A401CC0B2207292
:102900000428FFF4F5AEBDE8F09F000008000020A9
:10291000AC0100200010014000080140000C014003
:1029200010B540210348FEF753F9012801D10249AF
:10293000C87110BD000C0140080000202DE9F041D5
:102940006648028840F628218A4201D2012300E02D
:10295000002302884FF4FA74A24201D9012200E058
:1029600000224589134040F62232954201D20125CA
:1029700000E0002546898E4201D9012600E00026AC
:10298000354085F001052B400589954201D201258E
:1029900000E0002506898E4201D9012600E00026CC
:1029A000354085F001052B4045888D4201D2012537
:1029B00000E000254688A64201D9012600E0002655
:1029C00035404689964201D2012600E0002647891B
:1029D0008F4201D9012700E000273E4086F0010622
:1029E00035400689964201D2012600E0002607897B
:1029F0008F4201D9012700E000273E4086F0010602
:102A000035402B4385888D4201D2012500E0002509
:102A10008688A64201D9012600E000263540468975
:102A2000964201D2012600E0002647898F4201D953
:102A3000012700E000273E4086F001063540068968
:102A4000964201D2012600E0002607898F4201D973
:102A5000012700E000273E4086F0010635402B4369
:102A6000C5888D4201D2012500E00025C688A64216
:102A700001D9012400E0002425404489944201D278
:102A8000012400E0002446898E4201D9012600E09D
:102A90000026344084F0010425400489944201D288
:102AA000012200E000220089884201D9012000E0D3
:102AB0000020024082F001000540094C2B4309D060
:102AC00006483C38FEF754FE04483C38FEF75DFEED
:102AD000012000E000202071BDE8F081AC01002061
:102AE000080000202DE9F047284C0020284DDFF891
:102AF000A490DFF8A4A020724FF4FA7640F62238B2
:102B00000127C0B235F81010B14219D2062817D2E9
:102B1000DFE800F003050C121515202100E010215C
:102B20004FEA0900FEF754F848B109E08021504609
:102B3000FEF74EF820B9E77140215046F2E7E77101
:102B4000207A35F81020424518D9062816D2DFE839
:102B500000F003050B111414202100E01021484659
:102B6000FEF736F848B109E080215046FEF730F80C
:102B700020B9E77140215046F2E7E771207A401C06
:102B8000C0B220720628BCD3BDE8F0870800002040
:102B9000AC01002000100140000801401CB5FEF708
:102BA00033F8FFF7C2F9FFF7A9F83C48416941F053
:102BB000010141614069002200F0010000901146CE
:102BC0000B20FEF789F80B20FEF77AF8FFF746F89E
:102BD000FFF752F93348324941F63F76C0E9001613
:102BE00000243111C0E90241FEF72CFD00B1FEE7DF
:102BF0002025CDE9005469462A48FEF7FBFC00B1C8
:102C0000FEE7284828493C30C0E9001640F2CF7161
:102C1000C0E90241FEF716FD00B1FEE72148CDE90B
:102C2000005469463C30FEF7E5FC00B1FEE71D4864
:102C30001E49B43045F6BF55C0E90015E910C0E99A
:102C4000024104614461FEF7FDFC00B1FEE7154856
:102C50001749F030C0E900154EF65F21C0E9024186
:102C600004614461FEF7EEFC00B1FEE7FFF7D8F81F
:102C700010490622A1F5CC70FDF7CEFCFFF732FF1C
:102C800000F0E2FBFFF722FD00F016F800F006F975
:102C9000FFF754FEFFF744FEF0E70000001002408B
:102CA000001000408000002000140040004401405B
:102CB00000480140AC0100202DE9F047704D7148FB
:102CC000714CE97986144FF00008A9B10022042163
:102CD000FDF787FF012231462046FDF782FF287865
:102CE000E978084328D16948FEF742FD6748FEF7B6
:102CF0004CFD012028701FE001220421FDF771FF27
:102D0000002231462046FDF76CFF6048FEF749FD82
:102D10005E48FEF75CFD85F80080A9784046D9B191
:102D20000021EA78D2B10022114205D068705748DC
:102D300004213C38FEF756FF2021A2462046FDF72D
:102D400047FF01280CD00027514C20884FF4FA7916
:102D5000484507D9012006E00121E2E70122E3E727
:102D60000127F1E70020218840F62236B14201D246
:102D7000012100E000210840074310215046FDF7E3
:102D800027FF012800D000206188494501D9012191
:102D900000E000216288B24201D2012200E000225C
:102DA00011400843DFF8ECA0074080215046FDF7B2
:102DB0000FFF012800D00020A188494501D9012139
:102DC00000E00021A288B24201D2012200E00022EC
:102DD00011400843074040215046FDF7F9FE012805
:102DE00006D00021E2884846824203D9012202E04F
:102DF0000121F7E70022E388B34201D2012300E07A
:102E000000231A4011430F402189814201D9012139
:102E100000E000212289B24201D2012200E000221A
:102E200011400F406189494501D9012000E000208F
:102E30006189B14201D2012100E000210840164C15
:102E400007404FF480712046FDF7C2FE88B1002094
:102E50000740287978B10020074040212046FDF73F
:102E6000B7FE50B10020074201D085F80780BDE8C9
:102E7000F0870120ECE70120EEE70120F3E70000F6
:102E800008000020001401400010014080000020D4
:102E9000AC01002000080140000C01402DE9F05F6A
:102EA0001021FD48FDF794FEFE4C00270125002867
:102EB000FA4EDFF8EC83E0794FF4806140F6223976
:102EC00040F6282B13D0002879D001223046FDF798
:102ED00088FE2021F148FDF77BFE012870D00026F6
:102EE000B8F8002040464A456BD201215BE190B121
:102EF00000223046FDF775FE2021E848FDF768FE08
:102F000001280AD00026B8F800204046CA4652459B
:102F100005D2012104E00122EBE70126F3E70021BD
:102F2000028840F68C294A4501D9012000E00020A2
:102F300001400E431021D948FDF74AFE012807D071
:102F40000021B8F802304046534503D2012202E086
:102F50000121F6E7002243884B4501D9012000E01A
:102F60000020024011430E408021CF48FDF730FE83
:102F7000012807D00021B8F804304046534503D259
:102F8000012202E00121F6E70022838840F68C202E
:102F9000834201D9012000E00020024011430E408D
:102FA0004021C148FDF714FE01280BD00021B8F8DC
:102FB00006304046D1464B4506D2012205E0EDE001
:102FC000EEE0EFE00121F2E70022C38840F68C201A
:102FD000834201D9012000E00020024011430E424B
:102FE00016D001229103B048FDF7FBFD607901285E
:102FF00015D1E5700421AD48FEF7CEFDA84878381C
:10300000FEF7B6FBA6487838FEF7BFFB677106E00F
:1030100000224FF48041A448FDF7E3FD6571B8F844
:103020000A104646494501D2012200E00022738978
:103030005B4501D9012300E000231A4033894B4549
:1030400001D2012000E000203389D9464B4501D947
:10305000012100E000210840024300D001224FF48A
:1030600000519148FDF7BDFDE07901288C48A0F1A1
:10307000B40018D0FEF795FB8948B438FEF7A7FBDB
:1030800000224FF480518848FDF7ABFD2021834892
:10309000FDF79EFD01280DD04FF00008318849450D
:1030A0000BD201200AE0FEF763FB7D48B438FEF73F
:1030B0006CFBEBE74FF00108F0E7002031884FF49C
:1030C000FA7A514501D9012100E00021084048EA7F
:1030D000000810217148FDF77BFD012806D0002172
:1030E000738830464B4503D2012202E00121F7E705
:1030F00000224088504501D9012000E00020024014
:103100001143DFF8A4B108EA010880215846FDF711
:103110005FFD012806D00021B38830464B4503D21D
:10312000012202E00121F7E700228088504501D901
:10313000012000E000200240114308EA010840217C
:103140005846FDF745FD012806D00021F38830469A
:103150004B4503D2012202E00121F7E70022C0889B
:10316000504501D9012000E000200240114318EA37
:10317000010F11D001224FE1E57004214B48FEF709
:103180000BFD47487838FEF7F3FA45487838FEF7E4
:10319000FCFAA771BDE8F09F002248E1002295E605
:1031A00001269DE60021028840F68C2A524501D96D
:1031B000012000E0002001400E4310213748FDF7B8
:1031C00007FD012809D00021B8F80230404640F63A
:1031D0002232934203D2012202E00121F4E70022CD
:1031E0004388D1464B4501D9012000E00020024030
:1031F00011430E4080212C48FDF7EAFC012809D03C
:103200000021B8F80430404640F62238434503D246
:10321000012202E00121F4E70022838882464B4527
:1032200001D9012000E00020024011430E4040215E
:103230001D48FDF7CDFC012808D00021BAF8063062
:103240005046C246534503D2012202E00121F5E770
:103250000022C38880464B4501D9012000E00020B0
:10326000024011430E4223D000224FF480410E4809
:10327000FDF7B7FC6079012820D1E57004210B48E7
:10328000FEF78AFC06487838FEF772FA0448783868
:10329000FEF77BFA677111E0000C0140001001405D
:1032A000AC0100200800002000080140440000207C
:1032B000012291036148FDF794FC6571B8F80A207A
:1032C0004046524501D2012200E0002243895E4679
:1032D000B34201D9012300E000231A40038953457A
:1032E00001D2012100E000210089C146B04201D98C
:1032F000012000E0002001400A4301D0002200E04C
:1033000001224FF400514D48FDF76BFCE079012894
:103310004B4819D0FEF745FA4948FEF758FA012202
:1033200011034648FDF75DFC20214648FDF750FC9F
:1033300001280FD04FF00008B9F800204846B146E8
:103340004A450AD2012109E0FEF712FA3C48FEF78D
:103350001CFAE9E74FF00108EEE700210646008875
:103360004FF4FA7A504501D9012000E000200140D5
:1033700048EA010810213348FDF72AFC012806D04D
:103380000021738830464B4503D2012202E001211F
:10339000F7E700224088504501D9012000E00020D5
:1033A00002401143DFF894B008EA01088021584632
:1033B000FDF70EFC012806D00021B38830464B45AE
:1033C00003D2012202E00121F7E700228088504564
:1033D00001D9012000E000200240114308EA010861
:1033E00040215846FDF7F4FB012806D00021F38860
:1033F00030464B4503D2012202E00121F7E70022CB
:10340000C088504501D9012000E00020024011434E
:1034100018EA010F0AD000224FF400710948FDF7A5
:10342000E0FBA07901283FF4A7AEB3E601224FF4F8
:1034300000710448FDF7D5FBA571ABE6000801401B
:10344000F8000020001001402DE9F05FC54E40213A
:103450003046FDF7BDFBC44C012804D101220821F0
:103460002046FDF7BEFB80213046FDF7B1FB012869
:1034700004D1012204212046FDF7B3FB1021204690
:10348000FDF7A6FB012804D1012202212046FDF709
:10349000A8FB2021A1462046FDF79AFB012804D174
:1034A000012211464846FDF79CFB4FF48071AF485E
:1034B000FDF78EFBDFF8B8A24FF0010B01280DD00D
:1034C00000224FF400614846FDF78BFBA94C608950
:1034D00040F62235A84209D2012008E00122D1029B
:1034E0004846FDF77EFB8AF807B0EFE700206189C8
:1034F00040F62827B94201D9012100E00021084205
:103500000FD000224FF480713046FDF76AFB012294
:10351000D1023046FDF765FB01220F214846FDF739
:1035200060FB2089A84201D2012000E0002022890E
:10353000B846424501D9012100E00021084215D0DA
:1035400000224FF400413046FDF74BFB874F01222C
:1035500008213846FDF745FBB9153846FDF738FB1D
:1035600020B901220F214846FDF73BFB57469AF848
:1035700000004FF0000A30BB2089A84201D201218F
:1035800000E000212289424501D9012200E0002209
:1035900011406289AA4201D2012200E0002263891F
:1035A000434501D9012000E00020024011430AD028
:1035B0007048F038FEF7DCF86E48F038FEF7E5F8B2
:1035C00087F802B009E06B48F038FEF7EAF869487E
:1035D000F038FEF7FCF887F802A060894746B84249
:1035E00001D2012000E0002061894FF4FA784145C2
:1035F00001D9012100E00021084253D04FF4807A24
:10360000012251463046FDF7ECFA00224FF40061EA
:103610003046FDF7E6FA2089A84201D2012000E0F9
:1036200000202189B94201D9012100E0002108428E
:1036300025D140213046FDF7CBFA30B301220821D5
:103640004846FDF7CEFA80213046FDF7C1FAF0B1C9
:10365000012204214846FDF7C4FA10214846FDF72F
:10366000B7FAB0B1012202214846FDF7BAFA20218B
:103670004846FDF7ADFA70B1012201210FE0514635
:103680003A48FDF7A5FA40B10CE00022D7E7002246
:10369000DFE70022E7E70022EFE701220F2148469B
:1036A000FDF79FFA2089B84201D2012000E00020F6
:1036B0002189414501D9012100E0002108424ED075
:1036C0000122D1033046FDF78CFA00220821274859
:1036D000FDF787FA6089A84201D2012000E00020AE
:1036E0006189B94201D9012100E0002108422AD1B3
:1036F00040213046FDF76CFA48B3012208214846C4
:10370000FDF76FFA80213046FDF762FA08B3012217
:1037100004214846FDF765FA10214C464846FDF75E
:1037200057FAC0B1012202212046FDF75AFA2021A2
:103730002046FDF74DFA80B1012201212046BDE867
:10374000F05FFDF74EBA01220F214846F7E700224D
:10375000D4E70022DCE70022E5E70022EDE7BDE840
:10376000F09F00000008014000100140000C0140E3
:1037700008000020AC010020000000000000000054
:103780000102030406070809A8370008000000200A
:1037900014000000AE260008BC370008140000200A
:1037A000DC050000BE2600080000000000366E01A7
:0C37B0000000000000000000000000000D
:0400000508000121CD
:00000001FF
